{
  "_format": "hh-sol-artifact-1",
  "contractName": "hotelManagement",
  "sourceName": "contracts/hotelManagement.sol",
  "abi": [
    {
      "inputs": [
        {
          "internalType": "address",
          "name": "Manager",
          "type": "address"
        },
        {
          "internalType": "address",
          "name": "thirdPerson",
          "type": "address"
        }
      ],
      "stateMutability": "nonpayable",
      "type": "constructor"
    },
    {
      "anonymous": false,
      "inputs": [
        {
          "indexed": false,
          "internalType": "bool",
          "name": "success",
          "type": "bool"
        },
        {
          "indexed": false,
          "internalType": "string",
          "name": "id",
          "type": "string"
        }
      ],
      "name": "PaymentApproved",
      "type": "event"
    },
    {
      "anonymous": false,
      "inputs": [
        {
          "indexed": false,
          "internalType": "bool",
          "name": "success",
          "type": "bool"
        }
      ],
      "name": "PaymentCreated",
      "type": "event"
    },
    {
      "anonymous": false,
      "inputs": [
        {
          "indexed": false,
          "internalType": "bool",
          "name": "success",
          "type": "bool"
        }
      ],
      "name": "RoomsCheckedOut",
      "type": "event"
    },
    {
      "inputs": [
        {
          "internalType": "uint256",
          "name": "id",
          "type": "uint256"
        }
      ],
      "name": "approvePayment",
      "outputs": [
        {
          "internalType": "bool",
          "name": "",
          "type": "bool"
        }
      ],
      "stateMutability": "nonpayable",
      "type": "function"
    },
    {
      "inputs": [
        {
          "internalType": "uint256",
          "name": "payID",
          "type": "uint256"
        },
        {
          "internalType": "string[]",
          "name": "rooms",
          "type": "string[]"
        }
      ],
      "name": "checkoutRooms",
      "outputs": [
        {
          "internalType": "bool",
          "name": "",
          "type": "bool"
        }
      ],
      "stateMutability": "nonpayable",
      "type": "function"
    },
    {
      "inputs": [
        {
          "internalType": "string",
          "name": "userID",
          "type": "string"
        },
        {
          "internalType": "uint256",
          "name": "pay",
          "type": "uint256"
        },
        {
          "internalType": "string[]",
          "name": "rooms",
          "type": "string[]"
        }
      ],
      "name": "createPayment",
      "outputs": [
        {
          "internalType": "bool",
          "name": "",
          "type": "bool"
        }
      ],
      "stateMutability": "nonpayable",
      "type": "function"
    },
    {
      "inputs": [],
      "name": "getPermissions",
      "outputs": [
        {
          "components": [
            {
              "internalType": "uint256",
              "name": "reciptID",
              "type": "uint256"
            },
            {
              "internalType": "uint256",
              "name": "payment",
              "type": "uint256"
            },
            {
              "internalType": "string",
              "name": "onwerID",
              "type": "string"
            },
            {
              "internalType": "string[]",
              "name": "roomsID",
              "type": "string[]"
            },
            {
              "internalType": "bool",
              "name": "Manager",
              "type": "bool"
            },
            {
              "internalType": "bool",
              "name": "thirdPart",
              "type": "bool"
            },
            {
              "internalType": "bool",
              "name": "status",
              "type": "bool"
            }
          ],
          "internalType": "struct hotelManagement.hotelPayments[]",
          "name": "",
          "type": "tuple[]"
        }
      ],
      "stateMutability": "view",
      "type": "function"
    },
    {
      "inputs": [],
      "name": "owner",
      "outputs": [
        {
          "internalType": "address",
          "name": "",
          "type": "address"
        }
      ],
      "stateMutability": "view",
      "type": "function"
    },
    {
      "inputs": [],
      "name": "thirdParty",
      "outputs": [
        {
          "internalType": "address",
          "name": "",
          "type": "address"
        }
      ],
      "stateMutability": "view",
      "type": "function"
    }
  ],
  "bytecode": "0x60806040523480156200001157600080fd5b5060405162001f1e38038062001f1e833981810160405281019062000037919062000132565b81600160006101000a81548173ffffffffffffffffffffffffffffffffffffffff021916908373ffffffffffffffffffffffffffffffffffffffff16021790555080600260006101000a81548173ffffffffffffffffffffffffffffffffffffffff021916908373ffffffffffffffffffffffffffffffffffffffff16021790555060008081905550505062000179565b600080fd5b600073ffffffffffffffffffffffffffffffffffffffff82169050919050565b6000620000fa82620000cd565b9050919050565b6200010c81620000ed565b81146200011857600080fd5b50565b6000815190506200012c8162000101565b92915050565b600080604083850312156200014c576200014b620000c8565b5b60006200015c858286016200011b565b92505060206200016f858286016200011b565b9150509250929050565b611d9580620001896000396000f3fe608060405234801561001057600080fd5b50600436106100625760003560e01c80634dc757b3146100675780638da5cb5b14610097578063c3a07df6146100b5578063de14c818146100d3578063e02ea48414610103578063e7e2105714610121575b600080fd5b610081600480360381019061007c919061126a565b610151565b60405161008e91906112e1565b60405180910390f35b61009f6104a4565b6040516100ac919061133d565b60405180910390f35b6100bd6104ca565b6040516100ca919061161c565b60405180910390f35b6100ed60048036038101906100e8919061163e565b6107e1565b6040516100fa91906112e1565b60405180910390f35b61010b610ab3565b604051610118919061133d565b60405180910390f35b61013b6004803603810190610136919061166b565b610ad9565b60405161014891906112e1565b60405180910390f35b600080600090505b60058054905081101561046057836005828154811061017b5761017a6116f6565b5b9060005260206000209060050201600001540361044d57600560016005805490506101a69190611754565b815481106101b7576101b66116f6565b5b9060005260206000209060050201600582815481106101d9576101d86116f6565b5b906000526020600020906005020160008201548160000155600182015481600101556002820181600201908161020f91906119aa565b506003820181600301908054610226929190610e9c565b506004820160009054906101000a900460ff168160040160006101000a81548160ff0219169083151502179055506004820160019054906101000a900460ff168160040160016101000a81548160ff0219169083151502179055506004820160029054906101000a900460ff168160040160026101000a81548160ff02191690831515021790555090505060058054806102c3576102c2611a92565b5b600190038181906000526020600020906005020160008082016000905560018201600090556002820160006102f89190610ef9565b6003820160006103089190610f39565b6004820160006101000a81549060ff02191690556004820160016101000a81549060ff02191690556004820160026101000a81549060ff02191690555050905560005b835181101561040a5760011515600485838151811061036d5761036c6116f6565b5b60200260200101516040516103829190611afd565b908152602001604051809103902060009054906101000a900460ff161515036103f757600060048583815181106103bc576103bb6116f6565b5b60200260200101516040516103d19190611afd565b908152602001604051809103902060006101000a81548160ff0219169083151502179055505b808061040290611b14565b91505061034b565b507ff6d94ad26fd7701c2b634ffd7b3c5b2febf5f8c8cc6500b44b2338fae0ce90a4600160405161043b91906112e1565b60405180910390a1600191505061049e565b808061045890611b14565b915050610159565b507ff6d94ad26fd7701c2b634ffd7b3c5b2febf5f8c8cc6500b44b2338fae0ce90a4600060405161049191906112e1565b60405180910390a1600090505b92915050565b600160009054906101000a900473ffffffffffffffffffffffffffffffffffffffff1681565b6060600160009054906101000a900473ffffffffffffffffffffffffffffffffffffffff1673ffffffffffffffffffffffffffffffffffffffff163373ffffffffffffffffffffffffffffffffffffffff1614806105755750600260009054906101000a900473ffffffffffffffffffffffffffffffffffffffff1673ffffffffffffffffffffffffffffffffffffffff163373ffffffffffffffffffffffffffffffffffffffff16145b6105b4576040517f08c379a00000000000000000000000000000000000000000000000000000000081526004016105ab90611bb9565b60405180910390fd5b6005805480602002602001604051908101604052809291908181526020016000905b828210156107d857838290600052602060002090600502016040518060e0016040529081600082015481526020016001820154815260200160028201805461061d906117b7565b80601f0160208091040260200160405190810160405280929190818152602001828054610649906117b7565b80156106965780601f1061066b57610100808354040283529160200191610696565b820191906000526020600020905b81548152906001019060200180831161067957829003601f168201915b5050505050815260200160038201805480602002602001604051908101604052809291908181526020016000905b828210156107705783829060005260206000200180546106e3906117b7565b80601f016020809104026020016040519081016040528092919081815260200182805461070f906117b7565b801561075c5780601f106107315761010080835404028352916020019161075c565b820191906000526020600020905b81548152906001019060200180831161073f57829003601f168201915b5050505050815260200190600101906106c4565b5050505081526020016004820160009054906101000a900460ff161515151581526020016004820160019054906101000a900460ff161515151581526020016004820160029054906101000a900460ff161515151581525050815260200190600101906105d6565b50505050905090565b6000600160009054906101000a900473ffffffffffffffffffffffffffffffffffffffff1673ffffffffffffffffffffffffffffffffffffffff163373ffffffffffffffffffffffffffffffffffffffff16148061088c5750600260009054906101000a900473ffffffffffffffffffffffffffffffffffffffff1673ffffffffffffffffffffffffffffffffffffffff163373ffffffffffffffffffffffffffffffffffffffff16145b6108cb576040517f08c379a00000000000000000000000000000000000000000000000000000000081526004016108c290611bb9565b60405180910390fd5b600160009054906101000a900473ffffffffffffffffffffffffffffffffffffffff1673ffffffffffffffffffffffffffffffffffffffff163373ffffffffffffffffffffffffffffffffffffffff16036109545760016003600084815260200190815260200160002060040160006101000a81548160ff021916908315150217905550610984565b60016003600084815260200190815260200160002060040160016101000a81548160ff0219169083151502179055505b600115156003600084815260200190815260200160002060040160009054906101000a900460ff1615151480156109e25750600115156003600084815260200190815260200160002060040160019054906101000a900460ff161515145b15610a175760016003600084815260200190815260200160002060040160026101000a81548160ff0219169083151502179055505b7ff22ddbb2ae236bf5448a5ff90fa28ed898414fec38ad346f27973034341792e16003600084815260200190815260200160002060040160029054906101000a900460ff1660036000858152602001908152602001600020600201604051610a80929190611c5d565b60405180910390a16003600083815260200190815260200160002060040160029054906101000a900460ff169050919050565b600260009054906101000a900473ffffffffffffffffffffffffffffffffffffffff1681565b600080600090505b8251811015610b9057600115156004848381518110610b0357610b026116f6565b5b6020026020010151604051610b189190611afd565b908152602001604051809103902060009054906101000a900460ff16151503610b7d577f560db57f4f40bba15fb8bf3b7a9d6f3b7dad8d36a5d9fc74435f841d1764008a6000604051610b6b91906112e1565b60405180910390a16000915050610e95565b8080610b8890611b14565b915050610ae1565b506040518060e00160405280600054815260200184815260200185815260200183815260200160001515815260200160001515815260200160001515815250600360008054815260200190815260200160002060008201518160000155602082015181600101556040820151816002019081610c0c9190611c8d565b506060820151816003019080519060200190610c29929190610f5a565b5060808201518160040160006101000a81548160ff02191690831515021790555060a08201518160040160016101000a81548160ff02191690831515021790555060c08201518160040160026101000a81548160ff02191690831515021790555090505060005b8251811015610d4f57600015156004848381518110610cb257610cb16116f6565b5b6020026020010151604051610cc79190611afd565b908152602001604051809103902060009054906101000a900460ff16151503610d3c5760016004848381518110610d0157610d006116f6565b5b6020026020010151604051610d169190611afd565b908152602001604051809103902060006101000a81548160ff0219169083151502179055505b8080610d4790611b14565b915050610c90565b507f560db57f4f40bba15fb8bf3b7a9d6f3b7dad8d36a5d9fc74435f841d1764008a6001604051610d8091906112e1565b60405180910390a1600560036000805481526020019081526020016000209080600181540180825580915050600190039060005260206000209060050201600090919091909150600082015481600001556001820154816001015560028201816002019081610def91906119aa565b506003820181600301908054610e06929190610e9c565b506004820160009054906101000a900460ff168160040160006101000a81548160ff0219169083151502179055506004820160019054906101000a900460ff168160040160016101000a81548160ff0219169083151502179055506004820160029054906101000a900460ff168160040160026101000a81548160ff0219169083151502179055505050600190505b9392505050565b828054828255906000526020600020908101928215610ee85760005260206000209182015b82811115610ee75782829081610ed791906119aa565b5091600101919060010190610ec1565b5b509050610ef59190610fb3565b5090565b508054610f05906117b7565b6000825580601f10610f175750610f36565b601f016020900490600052602060002090810190610f359190610fd7565b5b50565b5080546000825590600052602060002090810190610f579190610fb3565b50565b828054828255906000526020600020908101928215610fa2579160200282015b82811115610fa1578251829081610f919190611c8d565b5091602001919060010190610f7a565b5b509050610faf9190610fb3565b5090565b5b80821115610fd35760008181610fca9190610ef9565b50600101610fb4565b5090565b5b80821115610ff0576000816000905550600101610fd8565b5090565b6000604051905090565b600080fd5b600080fd5b6000819050919050565b61101b81611008565b811461102657600080fd5b50565b60008135905061103881611012565b92915050565b600080fd5b6000601f19601f8301169050919050565b7f4e487b7100000000000000000000000000000000000000000000000000000000600052604160045260246000fd5b61108c82611043565b810181811067ffffffffffffffff821117156110ab576110aa611054565b5b80604052505050565b60006110be610ff4565b90506110ca8282611083565b919050565b600067ffffffffffffffff8211156110ea576110e9611054565b5b602082029050602081019050919050565b600080fd5b600080fd5b600067ffffffffffffffff8211156111205761111f611054565b5b61112982611043565b9050602081019050919050565b82818337600083830152505050565b600061115861115384611105565b6110b4565b90508281526020810184848401111561117457611173611100565b5b61117f848285611136565b509392505050565b600082601f83011261119c5761119b61103e565b5b81356111ac848260208601611145565b91505092915050565b60006111c86111c3846110cf565b6110b4565b905080838252602082019050602084028301858111156111eb576111ea6110fb565b5b835b8181101561123257803567ffffffffffffffff8111156112105761120f61103e565b5b80860161121d8982611187565b855260208501945050506020810190506111ed565b5050509392505050565b600082601f8301126112515761125061103e565b5b81356112618482602086016111b5565b91505092915050565b6000806040838503121561128157611280610ffe565b5b600061128f85828601611029565b925050602083013567ffffffffffffffff8111156112b0576112af611003565b5b6112bc8582860161123c565b9150509250929050565b60008115159050919050565b6112db816112c6565b82525050565b60006020820190506112f660008301846112d2565b92915050565b600073ffffffffffffffffffffffffffffffffffffffff82169050919050565b6000611327826112fc565b9050919050565b6113378161131c565b82525050565b6000602082019050611352600083018461132e565b92915050565b600081519050919050565b600082825260208201905092915050565b6000819050602082019050919050565b61138d81611008565b82525050565b600081519050919050565b600082825260208201905092915050565b60005b838110156113cd5780820151818401526020810190506113b2565b60008484015250505050565b60006113e482611393565b6113ee818561139e565b93506113fe8185602086016113af565b61140781611043565b840191505092915050565b600081519050919050565b600082825260208201905092915050565b6000819050602082019050919050565b600061144a83836113d9565b905092915050565b6000602082019050919050565b600061146a82611412565b611474818561141d565b9350836020820285016114868561142e565b8060005b858110156114c257848403895281516114a3858261143e565b94506114ae83611452565b925060208a0199505060018101905061148a565b50829750879550505050505092915050565b6114dd816112c6565b82525050565b600060e0830160008301516114fb6000860182611384565b50602083015161150e6020860182611384565b506040830151848203604086015261152682826113d9565b91505060608301518482036060860152611540828261145f565b915050608083015161155560808601826114d4565b5060a083015161156860a08601826114d4565b5060c083015161157b60c08601826114d4565b508091505092915050565b600061159283836114e3565b905092915050565b6000602082019050919050565b60006115b282611358565b6115bc8185611363565b9350836020820285016115ce85611374565b8060005b8581101561160a57848403895281516115eb8582611586565b94506115f68361159a565b925060208a019950506001810190506115d2565b50829750879550505050505092915050565b6000602082019050818103600083015261163681846115a7565b905092915050565b60006020828403121561165457611653610ffe565b5b600061166284828501611029565b91505092915050565b60008060006060848603121561168457611683610ffe565b5b600084013567ffffffffffffffff8111156116a2576116a1611003565b5b6116ae86828701611187565b93505060206116bf86828701611029565b925050604084013567ffffffffffffffff8111156116e0576116df611003565b5b6116ec8682870161123c565b9150509250925092565b7f4e487b7100000000000000000000000000000000000000000000000000000000600052603260045260246000fd5b7f4e487b7100000000000000000000000000000000000000000000000000000000600052601160045260246000fd5b600061175f82611008565b915061176a83611008565b925082820390508181111561178257611781611725565b5b92915050565b7f4e487b7100000000000000000000000000000000000000000000000000000000600052602260045260246000fd5b600060028204905060018216806117cf57607f821691505b6020821081036117e2576117e1611788565b5b50919050565b6000815490506117f7816117b7565b9050919050565b60008190508160005260206000209050919050565b60006020601f8301049050919050565b600082821b905092915050565b6000600883026118607fffffffffffffffffffffffffffffffffffffffffffffffffffffffffffffffff82611823565b61186a8683611823565b95508019841693508086168417925050509392505050565b6000819050919050565b60006118a76118a261189d84611008565b611882565b611008565b9050919050565b6000819050919050565b6118c18361188c565b6118d56118cd826118ae565b848454611830565b825550505050565b600090565b6118ea6118dd565b6118f58184846118b8565b505050565b5b818110156119195761190e6000826118e2565b6001810190506118fb565b5050565b601f82111561195e5761192f816117fe565b61193884611813565b81016020851015611947578190505b61195b61195385611813565b8301826118fa565b50505b505050565b600082821c905092915050565b600061198160001984600802611963565b1980831691505092915050565b600061199a8383611970565b9150826002028217905092915050565b8181036119b8575050611a90565b6119c1826117e8565b67ffffffffffffffff8111156119da576119d9611054565b5b6119e482546117b7565b6119ef82828561191d565b6000601f831160018114611a1e5760008415611a0c578287015490505b611a16858261198e565b865550611a89565b601f198416611a2c876117fe565b9650611a37866117fe565b60005b82811015611a5f57848901548255600182019150600185019450602081019050611a3a565b86831015611a7c5784890154611a78601f891682611970565b8355505b6001600288020188555050505b5050505050505b565b7f4e487b7100000000000000000000000000000000000000000000000000000000600052603160045260246000fd5b600081905092915050565b6000611ad782611393565b611ae18185611ac1565b9350611af18185602086016113af565b80840191505092915050565b6000611b098284611acc565b915081905092915050565b6000611b1f82611008565b91507fffffffffffffffffffffffffffffffffffffffffffffffffffffffffffffffff8203611b5157611b50611725565b5b600182019050919050565b600082825260208201905092915050565b7f4e6f7420616e20617574686f7269747920706572736f6e000000000000000000600082015250565b6000611ba3601783611b5c565b9150611bae82611b6d565b602082019050919050565b60006020820190508181036000830152611bd281611b96565b9050919050565b60008154611be6816117b7565b611bf08186611b5c565b94506001821660008114611c0b5760018114611c2157611c54565b60ff198316865281151560200286019350611c54565b611c2a856117fe565b60005b83811015611c4c57815481890152600182019150602081019050611c2d565b808801955050505b50505092915050565b6000604082019050611c7260008301856112d2565b8181036020830152611c848184611bd9565b90509392505050565b611c9682611393565b67ffffffffffffffff811115611caf57611cae611054565b5b611cb982546117b7565b611cc482828561191d565b600060209050601f831160018114611cf75760008415611ce5578287015190505b611cef858261198e565b865550611d57565b601f198416611d05866117fe565b60005b82811015611d2d57848901518255600182019150602085019450602081019050611d08565b86831015611d4a5784890151611d46601f891682611970565b8355505b6001600288020188555050505b50505050505056fea2646970667358221220d845df603a13f706a90be8772ff470412accafcb7cebefc93195e49a454cedfb64736f6c63430008120033",
  "linkReferences": {},
  "deployedLinkReferences": {}
}