{
  "_format": "hh-sol-artifact-1",
  "contractName": "hotelManagement",
  "sourceName": "contracts/hotelManagement.sol",
  "abi": [
    {
      "inputs": [
        {
          "internalType": "address",
          "name": "thirdPerson2",
          "type": "address"
        },
        {
          "internalType": "address",
          "name": "thirdPerson",
          "type": "address"
        }
      ],
      "stateMutability": "nonpayable",
      "type": "constructor"
    },
    {
      "anonymous": false,
      "inputs": [
        {
          "indexed": false,
          "internalType": "bool",
          "name": "success",
          "type": "bool"
        }
      ],
      "name": "PaymentApproved",
      "type": "event"
    },
    {
      "anonymous": false,
      "inputs": [
        {
          "indexed": false,
          "internalType": "bool",
          "name": "success",
          "type": "bool"
        }
      ],
      "name": "PaymentCreated",
      "type": "event"
    },
    {
      "anonymous": false,
      "inputs": [
        {
          "indexed": false,
          "internalType": "bool",
          "name": "success",
          "type": "bool"
        }
      ],
      "name": "RoomsCheckedOut",
      "type": "event"
    },
    {
      "anonymous": false,
      "inputs": [
        {
          "indexed": false,
          "internalType": "bool",
          "name": "success",
          "type": "bool"
        }
      ],
      "name": "userCheckedOut",
      "type": "event"
    },
    {
      "inputs": [
        {
          "internalType": "address",
          "name": "sender1",
          "type": "address"
        },
        {
          "internalType": "uint256",
          "name": "userId",
          "type": "uint256"
        }
      ],
      "name": "approvePayment",
      "outputs": [
        {
          "internalType": "bool",
          "name": "",
          "type": "bool"
        }
      ],
      "stateMutability": "nonpayable",
      "type": "function"
    },
    {
      "inputs": [
        {
          "internalType": "uint256",
          "name": "payID",
          "type": "uint256"
        },
        {
          "internalType": "string[]",
          "name": "rooms",
          "type": "string[]"
        }
      ],
      "name": "checkoutRooms",
      "outputs": [
        {
          "internalType": "bool",
          "name": "",
          "type": "bool"
        }
      ],
      "stateMutability": "nonpayable",
      "type": "function"
    },
    {
      "inputs": [
        {
          "internalType": "string",
          "name": "string1",
          "type": "string"
        },
        {
          "internalType": "string",
          "name": "string2",
          "type": "string"
        }
      ],
      "name": "compareStrings",
      "outputs": [
        {
          "internalType": "bool",
          "name": "",
          "type": "bool"
        }
      ],
      "stateMutability": "pure",
      "type": "function"
    },
    {
      "inputs": [
        {
          "internalType": "string",
          "name": "userID",
          "type": "string"
        },
        {
          "internalType": "uint256",
          "name": "pay",
          "type": "uint256"
        },
        {
          "internalType": "string[]",
          "name": "rooms",
          "type": "string[]"
        }
      ],
      "name": "createPayment",
      "outputs": [
        {
          "internalType": "bool",
          "name": "",
          "type": "bool"
        }
      ],
      "stateMutability": "nonpayable",
      "type": "function"
    },
    {
      "inputs": [
        {
          "internalType": "address",
          "name": "sender1",
          "type": "address"
        },
        {
          "internalType": "uint256",
          "name": "userId",
          "type": "uint256"
        }
      ],
      "name": "getPayment",
      "outputs": [
        {
          "internalType": "bool",
          "name": "",
          "type": "bool"
        }
      ],
      "stateMutability": "view",
      "type": "function"
    },
    {
      "inputs": [],
      "name": "getPermissions",
      "outputs": [
        {
          "components": [
            {
              "internalType": "uint256",
              "name": "reciptID",
              "type": "uint256"
            },
            {
              "internalType": "uint256",
              "name": "payment",
              "type": "uint256"
            },
            {
              "internalType": "string",
              "name": "onwerID",
              "type": "string"
            },
            {
              "internalType": "string[]",
              "name": "roomsID",
              "type": "string[]"
            },
            {
              "internalType": "bool",
              "name": "Manager",
              "type": "bool"
            },
            {
              "internalType": "bool",
              "name": "thirdPart",
              "type": "bool"
            },
            {
              "internalType": "bool",
              "name": "status",
              "type": "bool"
            }
          ],
          "internalType": "struct hotelManagement.hotelPayments[]",
          "name": "",
          "type": "tuple[]"
        }
      ],
      "stateMutability": "view",
      "type": "function"
    },
    {
      "inputs": [],
      "name": "owner",
      "outputs": [
        {
          "internalType": "address",
          "name": "",
          "type": "address"
        }
      ],
      "stateMutability": "view",
      "type": "function"
    },
    {
      "inputs": [],
      "name": "thirdParty",
      "outputs": [
        {
          "internalType": "address",
          "name": "",
          "type": "address"
        }
      ],
      "stateMutability": "view",
      "type": "function"
    },
    {
      "inputs": [
        {
          "internalType": "string",
          "name": "roomId",
          "type": "string"
        }
      ],
      "name": "userCheckout",
      "outputs": [
        {
          "internalType": "bool",
          "name": "",
          "type": "bool"
        }
      ],
      "stateMutability": "nonpayable",
      "type": "function"
    }
  ],
  "bytecode": "0x60806040523480156200001157600080fd5b50604051620024e4380380620024e4833981810160405281019062000037919062000132565b81600160006101000a81548173ffffffffffffffffffffffffffffffffffffffff021916908373ffffffffffffffffffffffffffffffffffffffff16021790555080600260006101000a81548173ffffffffffffffffffffffffffffffffffffffff021916908373ffffffffffffffffffffffffffffffffffffffff16021790555060008081905550505062000179565b600080fd5b600073ffffffffffffffffffffffffffffffffffffffff82169050919050565b6000620000fa82620000cd565b9050919050565b6200010c81620000ed565b81146200011857600080fd5b50565b6000815190506200012c8162000101565b92915050565b600080604083850312156200014c576200014b620000c8565b5b60006200015c858286016200011b565b92505060206200016f858286016200011b565b9150509250929050565b61235b80620001896000396000f3fe608060405234801561001057600080fd5b50600436106100935760003560e01c8063977a767c11610066578063977a767c14610146578063bed34bba14610176578063c3a07df6146101a6578063e02ea484146101c4578063e7e21057146101e257610093565b8063025aeed0146100985780633bca77ce146100c85780634dc757b3146100f85780638da5cb5b14610128575b600080fd5b6100b260048036038101906100ad9190611694565b610212565b6040516100bf91906116f8565b60405180910390f35b6100e260048036038101906100dd91906117a7565b610305565b6040516100ef91906116f8565b60405180910390f35b610112600480360381019061010d91906118cd565b6107e1565b60405161011f91906116f8565b60405180910390f35b610130610b34565b60405161013d9190611938565b60405180910390f35b610160600480360381019061015b91906117a7565b610b5a565b60405161016d91906116f8565b60405180910390f35b610190600480360381019061018b9190611953565b610c70565b60405161019d91906116f8565b60405180910390f35b6101ae610cc9565b6040516101bb9190611c8f565b60405180910390f35b6101cc610fe0565b6040516101d99190611938565b60405180910390f35b6101fc60048036038101906101f79190611cb1565b611006565b60405161020991906116f8565b60405180910390f35b6000600115156004836040516102289190611d78565b908152602001604051809103902060009054906101000a900460ff161515036102c357600060048360405161025d9190611d78565b908152602001604051809103902060006101000a81548160ff0219169083151502179055507f64be9e50d12e0e0c6688e4f9c9a8279e0f7c0f3aa36cfb8f5427c737623de4d260016040516102b291906116f8565b60405180910390a160019050610300565b7f64be9e50d12e0e0c6688e4f9c9a8279e0f7c0f3aa36cfb8f5427c737623de4d260006040516102f391906116f8565b60405180910390a1600090505b919050565b6000600160009054906101000a900473ffffffffffffffffffffffffffffffffffffffff1673ffffffffffffffffffffffffffffffffffffffff168373ffffffffffffffffffffffffffffffffffffffff1614806103b05750600260009054906101000a900473ffffffffffffffffffffffffffffffffffffffff1673ffffffffffffffffffffffffffffffffffffffff168373ffffffffffffffffffffffffffffffffffffffff16145b6103ef576040517f08c379a00000000000000000000000000000000000000000000000000000000081526004016103e690611dec565b60405180910390fd5b600160009054906101000a900473ffffffffffffffffffffffffffffffffffffffff1673ffffffffffffffffffffffffffffffffffffffff168373ffffffffffffffffffffffffffffffffffffffff160361050b5760016003600084815260200190815260200160002060040160006101000a81548160ff02191690831515021790555060005b60068054905081101561050557826006828154811061049857610497611e0c565b5b906000526020600020906005020160000154036104f2576001600682815481106104c5576104c4611e0c565b5b906000526020600020906005020160040160006101000a81548160ff021916908315150217905550610505565b80806104fd90611e6a565b915050610476565b50610624565b600260009054906101000a900473ffffffffffffffffffffffffffffffffffffffff1673ffffffffffffffffffffffffffffffffffffffff168373ffffffffffffffffffffffffffffffffffffffff16036106235760016003600084815260200190815260200160002060040160016101000a81548160ff02191690831515021790555060005b6006805490508110156106215782600682815481106105b4576105b3611e0c565b5b9060005260206000209060050201600001540361060e576001600682815481106105e1576105e0611e0c565b5b906000526020600020906005020160040160016101000a81548160ff021916908315150217905550610621565b808061061990611e6a565b915050610592565b505b5b6003600083815260200190815260200160002060040160009054906101000a900460ff16801561067457506003600083815260200190815260200160002060040160019054906101000a900460ff165b1561077c5760016003600084815260200190815260200160002060040160026101000a81548160ff02191690831515021790555060005b6006805490508110156107725782600682815481106106cd576106cc611e0c565b5b9060005260206000209060050201600001540361075f577f3502fd1d7ee6e2e5733008405164bc64ac930b8af06943b00dbd9c9cefa533eb600160405161071491906116f8565b60405180910390a160016006828154811061073257610731611e0c565b5b906000526020600020906005020160040160026101000a81548160ff021916908315150217905550610772565b808061076a90611e6a565b9150506106ab565b50600190506107db565b7f3502fd1d7ee6e2e5733008405164bc64ac930b8af06943b00dbd9c9cefa533eb6003600084815260200190815260200160002060040160029054906101000a900460ff166040516107ce91906116f8565b60405180910390a1600090505b92915050565b600080600090505b600680549050811015610af057836006828154811061080b5761080a611e0c565b5b90600052602060002090600502016000015403610add57600660016006805490506108369190611eb2565b8154811061084757610846611e0c565b5b90600052602060002090600502016006828154811061086957610868611e0c565b5b906000526020600020906005020160008201548160000155600182015481600101556002820181600201908161089f9190612108565b5060038201816003019080546108b69291906113e2565b506004820160009054906101000a900460ff168160040160006101000a81548160ff0219169083151502179055506004820160019054906101000a900460ff168160040160016101000a81548160ff0219169083151502179055506004820160029054906101000a900460ff168160040160026101000a81548160ff0219169083151502179055509050506006805480610953576109526121f0565b5b60019003818190600052602060002090600502016000808201600090556001820160009055600282016000610988919061143f565b600382016000610998919061147f565b6004820160006101000a81549060ff02191690556004820160016101000a81549060ff02191690556004820160026101000a81549060ff02191690555050905560005b8351811015610a9a576001151560048583815181106109fd576109fc611e0c565b5b6020026020010151604051610a129190611d78565b908152602001604051809103902060009054906101000a900460ff16151503610a875760006004858381518110610a4c57610a4b611e0c565b5b6020026020010151604051610a619190611d78565b908152602001604051809103902060006101000a81548160ff0219169083151502179055505b8080610a9290611e6a565b9150506109db565b507ff6d94ad26fd7701c2b634ffd7b3c5b2febf5f8c8cc6500b44b2338fae0ce90a46001604051610acb91906116f8565b60405180910390a16001915050610b2e565b8080610ae890611e6a565b9150506107e9565b507ff6d94ad26fd7701c2b634ffd7b3c5b2febf5f8c8cc6500b44b2338fae0ce90a46000604051610b2191906116f8565b60405180910390a1600090505b92915050565b600160009054906101000a900473ffffffffffffffffffffffffffffffffffffffff1681565b6000600160009054906101000a900473ffffffffffffffffffffffffffffffffffffffff1673ffffffffffffffffffffffffffffffffffffffff168373ffffffffffffffffffffffffffffffffffffffff161480610c055750600260009054906101000a900473ffffffffffffffffffffffffffffffffffffffff1673ffffffffffffffffffffffffffffffffffffffff168373ffffffffffffffffffffffffffffffffffffffff16145b610c44576040517f08c379a0000000000000000000000000000000000000000000000000000000008152600401610c3b90611dec565b60405180910390fd5b6003600083815260200190815260200160002060040160029054906101000a900460ff16905092915050565b600081604051602001610c839190611d78565b6040516020818303038152906040528051906020012083604051602001610caa9190611d78565b6040516020818303038152906040528051906020012014905092915050565b6060600160009054906101000a900473ffffffffffffffffffffffffffffffffffffffff1673ffffffffffffffffffffffffffffffffffffffff163373ffffffffffffffffffffffffffffffffffffffff161480610d745750600260009054906101000a900473ffffffffffffffffffffffffffffffffffffffff1673ffffffffffffffffffffffffffffffffffffffff163373ffffffffffffffffffffffffffffffffffffffff16145b610db3576040517f08c379a0000000000000000000000000000000000000000000000000000000008152600401610daa90611dec565b60405180910390fd5b6006805480602002602001604051908101604052809291908181526020016000905b82821015610fd757838290600052602060002090600502016040518060e00160405290816000820154815260200160018201548152602001600282018054610e1c90611f15565b80601f0160208091040260200160405190810160405280929190818152602001828054610e4890611f15565b8015610e955780601f10610e6a57610100808354040283529160200191610e95565b820191906000526020600020905b815481529060010190602001808311610e7857829003601f168201915b5050505050815260200160038201805480602002602001604051908101604052809291908181526020016000905b82821015610f6f578382906000526020600020018054610ee290611f15565b80601f0160208091040260200160405190810160405280929190818152602001828054610f0e90611f15565b8015610f5b5780601f10610f3057610100808354040283529160200191610f5b565b820191906000526020600020905b815481529060010190602001808311610f3e57829003601f168201915b505050505081526020019060010190610ec3565b5050505081526020016004820160009054906101000a900460ff161515151581526020016004820160019054906101000a900460ff161515151581526020016004820160029054906101000a900460ff16151515158152505081526020019060010190610dd5565b50505050905090565b600260009054906101000a900473ffffffffffffffffffffffffffffffffffffffff1681565b600080600090505b82518110156110bd576001151560048483815181106110305761102f611e0c565b5b60200260200101516040516110459190611d78565b908152602001604051809103902060009054906101000a900460ff161515036110aa577f560db57f4f40bba15fb8bf3b7a9d6f3b7dad8d36a5d9fc74435f841d1764008a600060405161109891906116f8565b60405180910390a160009150506113db565b80806110b590611e6a565b91505061100e565b506040518060e00160405280600054815260200184815260200185815260200183815260200160001515815260200160001515815260200160001515815250600360008054815260200190815260200160002060008201518160000155602082015181600101556040820151816002019081611139919061221f565b5060608201518160030190805190602001906111569291906114a0565b5060808201518160040160006101000a81548160ff02191690831515021790555060a08201518160040160016101000a81548160ff02191690831515021790555060c08201518160040160026101000a81548160ff02191690831515021790555090505060005b825181101561127c576000151560048483815181106111df576111de611e0c565b5b60200260200101516040516111f49190611d78565b908152602001604051809103902060009054906101000a900460ff16151503611269576001600484838151811061122e5761122d611e0c565b5b60200260200101516040516112439190611d78565b908152602001604051809103902060006101000a81548160ff0219169083151502179055505b808061127490611e6a565b9150506111bd565b507f560db57f4f40bba15fb8bf3b7a9d6f3b7dad8d36a5d9fc74435f841d1764008a60016040516112ad91906116f8565b60405180910390a160066003600080548152602001908152602001600020908060018154018082558091505060019003906000526020600020906005020160009091909190915060008201548160000155600182015481600101556002820181600201908161131c9190612108565b5060038201816003019080546113339291906113e2565b506004820160009054906101000a900460ff168160040160006101000a81548160ff0219169083151502179055506004820160019054906101000a900460ff168160040160016101000a81548160ff0219169083151502179055506004820160029054906101000a900460ff168160040160026101000a81548160ff021916908315150217905550505060016000808282546113cf91906122f1565b92505081905550600190505b9392505050565b82805482825590600052602060002090810192821561142e5760005260206000209182015b8281111561142d578282908161141d9190612108565b5091600101919060010190611407565b5b50905061143b91906114f9565b5090565b50805461144b90611f15565b6000825580601f1061145d575061147c565b601f01602090049060005260206000209081019061147b919061151d565b5b50565b508054600082559060005260206000209081019061149d91906114f9565b50565b8280548282559060005260206000209081019282156114e8579160200282015b828111156114e75782518290816114d7919061221f565b50916020019190600101906114c0565b5b5090506114f591906114f9565b5090565b5b808211156115195760008181611510919061143f565b506001016114fa565b5090565b5b8082111561153657600081600090555060010161151e565b5090565b6000604051905090565b600080fd5b600080fd5b600080fd5b600080fd5b6000601f19601f8301169050919050565b7f4e487b7100000000000000000000000000000000000000000000000000000000600052604160045260246000fd5b6115a182611558565b810181811067ffffffffffffffff821117156115c0576115bf611569565b5b80604052505050565b60006115d361153a565b90506115df8282611598565b919050565b600067ffffffffffffffff8211156115ff576115fe611569565b5b61160882611558565b9050602081019050919050565b82818337600083830152505050565b6000611637611632846115e4565b6115c9565b90508281526020810184848401111561165357611652611553565b5b61165e848285611615565b509392505050565b600082601f83011261167b5761167a61154e565b5b813561168b848260208601611624565b91505092915050565b6000602082840312156116aa576116a9611544565b5b600082013567ffffffffffffffff8111156116c8576116c7611549565b5b6116d484828501611666565b91505092915050565b60008115159050919050565b6116f2816116dd565b82525050565b600060208201905061170d60008301846116e9565b92915050565b600073ffffffffffffffffffffffffffffffffffffffff82169050919050565b600061173e82611713565b9050919050565b61174e81611733565b811461175957600080fd5b50565b60008135905061176b81611745565b92915050565b6000819050919050565b61178481611771565b811461178f57600080fd5b50565b6000813590506117a18161177b565b92915050565b600080604083850312156117be576117bd611544565b5b60006117cc8582860161175c565b92505060206117dd85828601611792565b9150509250929050565b600067ffffffffffffffff82111561180257611801611569565b5b602082029050602081019050919050565b600080fd5b600061182b611826846117e7565b6115c9565b9050808382526020820190506020840283018581111561184e5761184d611813565b5b835b8181101561189557803567ffffffffffffffff8111156118735761187261154e565b5b8086016118808982611666565b85526020850194505050602081019050611850565b5050509392505050565b600082601f8301126118b4576118b361154e565b5b81356118c4848260208601611818565b91505092915050565b600080604083850312156118e4576118e3611544565b5b60006118f285828601611792565b925050602083013567ffffffffffffffff81111561191357611912611549565b5b61191f8582860161189f565b9150509250929050565b61193281611733565b82525050565b600060208201905061194d6000830184611929565b92915050565b6000806040838503121561196a57611969611544565b5b600083013567ffffffffffffffff81111561198857611987611549565b5b61199485828601611666565b925050602083013567ffffffffffffffff8111156119b5576119b4611549565b5b6119c185828601611666565b9150509250929050565b600081519050919050565b600082825260208201905092915050565b6000819050602082019050919050565b611a0081611771565b82525050565b600081519050919050565b600082825260208201905092915050565b60005b83811015611a40578082015181840152602081019050611a25565b60008484015250505050565b6000611a5782611a06565b611a618185611a11565b9350611a71818560208601611a22565b611a7a81611558565b840191505092915050565b600081519050919050565b600082825260208201905092915050565b6000819050602082019050919050565b6000611abd8383611a4c565b905092915050565b6000602082019050919050565b6000611add82611a85565b611ae78185611a90565b935083602082028501611af985611aa1565b8060005b85811015611b355784840389528151611b168582611ab1565b9450611b2183611ac5565b925060208a01995050600181019050611afd565b50829750879550505050505092915050565b611b50816116dd565b82525050565b600060e083016000830151611b6e60008601826119f7565b506020830151611b8160208601826119f7565b5060408301518482036040860152611b998282611a4c565b91505060608301518482036060860152611bb38282611ad2565b9150506080830151611bc86080860182611b47565b5060a0830151611bdb60a0860182611b47565b5060c0830151611bee60c0860182611b47565b508091505092915050565b6000611c058383611b56565b905092915050565b6000602082019050919050565b6000611c25826119cb565b611c2f81856119d6565b935083602082028501611c41856119e7565b8060005b85811015611c7d5784840389528151611c5e8582611bf9565b9450611c6983611c0d565b925060208a01995050600181019050611c45565b50829750879550505050505092915050565b60006020820190508181036000830152611ca98184611c1a565b905092915050565b600080600060608486031215611cca57611cc9611544565b5b600084013567ffffffffffffffff811115611ce857611ce7611549565b5b611cf486828701611666565b9350506020611d0586828701611792565b925050604084013567ffffffffffffffff811115611d2657611d25611549565b5b611d328682870161189f565b9150509250925092565b600081905092915050565b6000611d5282611a06565b611d5c8185611d3c565b9350611d6c818560208601611a22565b80840191505092915050565b6000611d848284611d47565b915081905092915050565b600082825260208201905092915050565b7f4e6f7420616e20617574686f7269747920706572736f6e000000000000000000600082015250565b6000611dd6601783611d8f565b9150611de182611da0565b602082019050919050565b60006020820190508181036000830152611e0581611dc9565b9050919050565b7f4e487b7100000000000000000000000000000000000000000000000000000000600052603260045260246000fd5b7f4e487b7100000000000000000000000000000000000000000000000000000000600052601160045260246000fd5b6000611e7582611771565b91507fffffffffffffffffffffffffffffffffffffffffffffffffffffffffffffffff8203611ea757611ea6611e3b565b5b600182019050919050565b6000611ebd82611771565b9150611ec883611771565b9250828203905081811115611ee057611edf611e3b565b5b92915050565b7f4e487b7100000000000000000000000000000000000000000000000000000000600052602260045260246000fd5b60006002820490506001821680611f2d57607f821691505b602082108103611f4057611f3f611ee6565b5b50919050565b600081549050611f5581611f15565b9050919050565b60008190508160005260206000209050919050565b60006020601f8301049050919050565b600082821b905092915050565b600060088302611fbe7fffffffffffffffffffffffffffffffffffffffffffffffffffffffffffffffff82611f81565b611fc88683611f81565b95508019841693508086168417925050509392505050565b6000819050919050565b6000612005612000611ffb84611771565b611fe0565b611771565b9050919050565b6000819050919050565b61201f83611fea565b61203361202b8261200c565b848454611f8e565b825550505050565b600090565b61204861203b565b612053818484612016565b505050565b5b818110156120775761206c600082612040565b600181019050612059565b5050565b601f8211156120bc5761208d81611f5c565b61209684611f71565b810160208510156120a5578190505b6120b96120b185611f71565b830182612058565b50505b505050565b600082821c905092915050565b60006120df600019846008026120c1565b1980831691505092915050565b60006120f883836120ce565b9150826002028217905092915050565b8181036121165750506121ee565b61211f82611f46565b67ffffffffffffffff81111561213857612137611569565b5b6121428254611f15565b61214d82828561207b565b6000601f83116001811461217c576000841561216a578287015490505b61217485826120ec565b8655506121e7565b601f19841661218a87611f5c565b965061219586611f5c565b60005b828110156121bd57848901548255600182019150600185019450602081019050612198565b868310156121da57848901546121d6601f8916826120ce565b8355505b6001600288020188555050505b5050505050505b565b7f4e487b7100000000000000000000000000000000000000000000000000000000600052603160045260246000fd5b61222882611a06565b67ffffffffffffffff81111561224157612240611569565b5b61224b8254611f15565b61225682828561207b565b600060209050601f8311600181146122895760008415612277578287015190505b61228185826120ec565b8655506122e9565b601f19841661229786611f5c565b60005b828110156122bf5784890151825560018201915060208501945060208101905061229a565b868310156122dc57848901516122d8601f8916826120ce565b8355505b6001600288020188555050505b505050505050565b60006122fc82611771565b915061230783611771565b925082820190508082111561231f5761231e611e3b565b5b9291505056fea26469706673582212209fee70d7f34c775f712573500072e8e79f3259f0a6c2a98dbb8930f31ec3597e64736f6c63430008120033",
  "linkReferences": {},
  "deployedLinkReferences": {}
}